{
  "_format": "hh3-artifact-1",
  "contractName": "Charity",
  "sourceName": "contracts/Charity.sol",
  "abi": [
    {
      "inputs": [],
      "stateMutability": "nonpayable",
      "type": "constructor"
    },
    {
      "anonymous": false,
      "inputs": [
        {
          "indexed": true,
          "internalType": "uint256",
          "name": "id",
          "type": "uint256"
        },
        {
          "indexed": true,
          "internalType": "address",
          "name": "creator",
          "type": "address"
        }
      ],
      "name": "CampaignCreated",
      "type": "event"
    },
    {
      "anonymous": false,
      "inputs": [
        {
          "indexed": true,
          "internalType": "uint256",
          "name": "campaignId",
          "type": "uint256"
        },
        {
          "indexed": true,
          "internalType": "address",
          "name": "commenter",
          "type": "address"
        },
        {
          "indexed": false,
          "internalType": "string",
          "name": "text",
          "type": "string"
        }
      ],
      "name": "CommentAdded",
      "type": "event"
    },
    {
      "anonymous": false,
      "inputs": [
        {
          "indexed": true,
          "internalType": "uint256",
          "name": "campaignId",
          "type": "uint256"
        },
        {
          "indexed": true,
          "internalType": "address",
          "name": "recipient",
          "type": "address"
        },
        {
          "indexed": false,
          "internalType": "uint256",
          "name": "amount",
          "type": "uint256"
        },
        {
          "indexed": false,
          "internalType": "bytes32",
          "name": "txHash",
          "type": "bytes32"
        }
      ],
      "name": "Disbursed",
      "type": "event"
    },
    {
      "anonymous": false,
      "inputs": [
        {
          "indexed": true,
          "internalType": "uint256",
          "name": "campaignId",
          "type": "uint256"
        },
        {
          "indexed": true,
          "internalType": "address",
          "name": "donor",
          "type": "address"
        },
        {
          "indexed": false,
          "internalType": "uint256",
          "name": "amount",
          "type": "uint256"
        },
        {
          "indexed": false,
          "internalType": "bytes32",
          "name": "txHash",
          "type": "bytes32"
        }
      ],
      "name": "DonationReceived",
      "type": "event"
    },
    {
      "anonymous": false,
      "inputs": [
        {
          "indexed": true,
          "internalType": "uint256",
          "name": "campaignId",
          "type": "uint256"
        },
        {
          "indexed": true,
          "internalType": "address",
          "name": "liker",
          "type": "address"
        }
      ],
      "name": "Liked",
      "type": "event"
    },
    {
      "anonymous": false,
      "inputs": [
        {
          "indexed": true,
          "internalType": "uint256",
          "name": "campaignId",
          "type": "uint256"
        },
        {
          "indexed": true,
          "internalType": "address",
          "name": "liker",
          "type": "address"
        }
      ],
      "name": "Unliked",
      "type": "event"
    },
    {
      "stateMutability": "payable",
      "type": "fallback"
    },
    {
      "inputs": [
        {
          "internalType": "uint256",
          "name": "campaignId",
          "type": "uint256"
        },
        {
          "internalType": "string",
          "name": "text",
          "type": "string"
        },
        {
          "internalType": "bool",
          "name": "anon",
          "type": "bool"
        }
      ],
      "name": "addComment",
      "outputs": [],
      "stateMutability": "nonpayable",
      "type": "function"
    },
    {
      "inputs": [
        {
          "internalType": "uint256",
          "name": "",
          "type": "uint256"
        }
      ],
      "name": "campaigns",
      "outputs": [
        {
          "internalType": "uint256",
          "name": "id",
          "type": "uint256"
        },
        {
          "internalType": "address",
          "name": "creator",
          "type": "address"
        },
        {
          "internalType": "string",
          "name": "title",
          "type": "string"
        },
        {
          "internalType": "string",
          "name": "description",
          "type": "string"
        },
        {
          "internalType": "string",
          "name": "media",
          "type": "string"
        },
        {
          "internalType": "string",
          "name": "location",
          "type": "string"
        },
        {
          "internalType": "uint256",
          "name": "targetAmount",
          "type": "uint256"
        },
        {
          "internalType": "address payable",
          "name": "campaignWallet",
          "type": "address"
        },
        {
          "internalType": "uint256",
          "name": "collected",
          "type": "uint256"
        },
        {
          "internalType": "uint256",
          "name": "createdAt",
          "type": "uint256"
        },
        {
          "internalType": "bool",
          "name": "active",
          "type": "bool"
        }
      ],
      "stateMutability": "view",
      "type": "function"
    },
    {
      "inputs": [
        {
          "internalType": "string",
          "name": "title",
          "type": "string"
        },
        {
          "internalType": "string",
          "name": "description",
          "type": "string"
        },
        {
          "internalType": "string",
          "name": "media",
          "type": "string"
        },
        {
          "internalType": "string",
          "name": "location",
          "type": "string"
        },
        {
          "internalType": "uint256",
          "name": "targetAmount",
          "type": "uint256"
        },
        {
          "internalType": "address payable",
          "name": "campaignWallet",
          "type": "address"
        }
      ],
      "name": "createCampaign",
      "outputs": [
        {
          "internalType": "uint256",
          "name": "",
          "type": "uint256"
        }
      ],
      "stateMutability": "nonpayable",
      "type": "function"
    },
    {
      "inputs": [
        {
          "internalType": "uint256",
          "name": "campaignId",
          "type": "uint256"
        },
        {
          "internalType": "address payable",
          "name": "recipient",
          "type": "address"
        },
        {
          "internalType": "uint256",
          "name": "amount",
          "type": "uint256"
        }
      ],
      "name": "disburseFromContract",
      "outputs": [],
      "stateMutability": "nonpayable",
      "type": "function"
    },
    {
      "inputs": [
        {
          "internalType": "uint256",
          "name": "campaignId",
          "type": "uint256"
        }
      ],
      "name": "donate",
      "outputs": [],
      "stateMutability": "payable",
      "type": "function"
    },
    {
      "inputs": [
        {
          "internalType": "uint256",
          "name": "id",
          "type": "uint256"
        },
        {
          "internalType": "uint256",
          "name": "index",
          "type": "uint256"
        }
      ],
      "name": "getComment",
      "outputs": [
        {
          "components": [
            {
              "internalType": "address",
              "name": "commenter",
              "type": "address"
            },
            {
              "internalType": "string",
              "name": "text",
              "type": "string"
            },
            {
              "internalType": "uint256",
              "name": "timestamp",
              "type": "uint256"
            },
            {
              "internalType": "bool",
              "name": "isAnonymous",
              "type": "bool"
            }
          ],
          "internalType": "struct Charity.Comment",
          "name": "",
          "type": "tuple"
        }
      ],
      "stateMutability": "view",
      "type": "function"
    },
    {
      "inputs": [
        {
          "internalType": "uint256",
          "name": "id",
          "type": "uint256"
        }
      ],
      "name": "getCommentsCount",
      "outputs": [
        {
          "internalType": "uint256",
          "name": "",
          "type": "uint256"
        }
      ],
      "stateMutability": "view",
      "type": "function"
    },
    {
      "inputs": [
        {
          "internalType": "uint256",
          "name": "id",
          "type": "uint256"
        },
        {
          "internalType": "uint256",
          "name": "index",
          "type": "uint256"
        }
      ],
      "name": "getDisbursement",
      "outputs": [
        {
          "components": [
            {
              "internalType": "address",
              "name": "recipient",
              "type": "address"
            },
            {
              "internalType": "uint256",
              "name": "amount",
              "type": "uint256"
            },
            {
              "internalType": "uint256",
              "name": "timestamp",
              "type": "uint256"
            },
            {
              "internalType": "uint256",
              "name": "blockNumber",
              "type": "uint256"
            },
            {
              "internalType": "bytes32",
              "name": "txHash",
              "type": "bytes32"
            }
          ],
          "internalType": "struct Charity.Disbursement",
          "name": "",
          "type": "tuple"
        }
      ],
      "stateMutability": "view",
      "type": "function"
    },
    {
      "inputs": [
        {
          "internalType": "uint256",
          "name": "id",
          "type": "uint256"
        }
      ],
      "name": "getDisbursementsCount",
      "outputs": [
        {
          "internalType": "uint256",
          "name": "",
          "type": "uint256"
        }
      ],
      "stateMutability": "view",
      "type": "function"
    },
    {
      "inputs": [
        {
          "internalType": "uint256",
          "name": "id",
          "type": "uint256"
        },
        {
          "internalType": "uint256",
          "name": "index",
          "type": "uint256"
        }
      ],
      "name": "getDonation",
      "outputs": [
        {
          "components": [
            {
              "internalType": "address",
              "name": "donor",
              "type": "address"
            },
            {
              "internalType": "uint256",
              "name": "amount",
              "type": "uint256"
            },
            {
              "internalType": "uint256",
              "name": "timestamp",
              "type": "uint256"
            },
            {
              "internalType": "uint256",
              "name": "blockNumber",
              "type": "uint256"
            },
            {
              "internalType": "bytes32",
              "name": "txHash",
              "type": "bytes32"
            }
          ],
          "internalType": "struct Charity.Donation",
          "name": "",
          "type": "tuple"
        }
      ],
      "stateMutability": "view",
      "type": "function"
    },
    {
      "inputs": [
        {
          "internalType": "uint256",
          "name": "id",
          "type": "uint256"
        }
      ],
      "name": "getDonationsCount",
      "outputs": [
        {
          "internalType": "uint256",
          "name": "",
          "type": "uint256"
        }
      ],
      "stateMutability": "view",
      "type": "function"
    },
    {
      "inputs": [
        {
          "internalType": "uint256",
          "name": "id",
          "type": "uint256"
        }
      ],
      "name": "getSupporters",
      "outputs": [
        {
          "internalType": "address[]",
          "name": "",
          "type": "address[]"
        }
      ],
      "stateMutability": "view",
      "type": "function"
    },
    {
      "inputs": [
        {
          "internalType": "uint256",
          "name": "id",
          "type": "uint256"
        }
      ],
      "name": "getSupportersCount",
      "outputs": [
        {
          "internalType": "uint256",
          "name": "",
          "type": "uint256"
        }
      ],
      "stateMutability": "view",
      "type": "function"
    },
    {
      "inputs": [
        {
          "internalType": "address",
          "name": "",
          "type": "address"
        }
      ],
      "name": "isAdmin",
      "outputs": [
        {
          "internalType": "bool",
          "name": "",
          "type": "bool"
        }
      ],
      "stateMutability": "view",
      "type": "function"
    },
    {
      "inputs": [
        {
          "internalType": "uint256",
          "name": "campaignId",
          "type": "uint256"
        }
      ],
      "name": "like",
      "outputs": [],
      "stateMutability": "nonpayable",
      "type": "function"
    },
    {
      "inputs": [
        {
          "internalType": "uint256",
          "name": "",
          "type": "uint256"
        },
        {
          "internalType": "address",
          "name": "",
          "type": "address"
        }
      ],
      "name": "liked",
      "outputs": [
        {
          "internalType": "bool",
          "name": "",
          "type": "bool"
        }
      ],
      "stateMutability": "view",
      "type": "function"
    },
    {
      "inputs": [
        {
          "internalType": "uint256",
          "name": "",
          "type": "uint256"
        }
      ],
      "name": "likesCount",
      "outputs": [
        {
          "internalType": "uint256",
          "name": "",
          "type": "uint256"
        }
      ],
      "stateMutability": "view",
      "type": "function"
    },
    {
      "inputs": [],
      "name": "nextCampaignId",
      "outputs": [
        {
          "internalType": "uint256",
          "name": "",
          "type": "uint256"
        }
      ],
      "stateMutability": "view",
      "type": "function"
    },
    {
      "inputs": [],
      "name": "owner",
      "outputs": [
        {
          "internalType": "address",
          "name": "",
          "type": "address"
        }
      ],
      "stateMutability": "view",
      "type": "function"
    },
    {
      "inputs": [
        {
          "internalType": "address",
          "name": "account",
          "type": "address"
        },
        {
          "internalType": "bool",
          "name": "allowed",
          "type": "bool"
        }
      ],
      "name": "setAdmin",
      "outputs": [],
      "stateMutability": "nonpayable",
      "type": "function"
    },
    {
      "inputs": [
        {
          "internalType": "uint256",
          "name": "campaignId",
          "type": "uint256"
        },
        {
          "internalType": "bool",
          "name": "active",
          "type": "bool"
        }
      ],
      "name": "setCampaignActive",
      "outputs": [],
      "stateMutability": "nonpayable",
      "type": "function"
    },
    {
      "inputs": [
        {
          "internalType": "uint256",
          "name": "campaignId",
          "type": "uint256"
        }
      ],
      "name": "unlike",
      "outputs": [],
      "stateMutability": "nonpayable",
      "type": "function"
    },
    {
      "stateMutability": "payable",
      "type": "receive"
    }
  ],
  "bytecode": "0x6080604052600180553480156012575f5ffd5b505f80546001600160a01b0319163390811782558152600a60205260409020805460ff19166001179055611cb4806100495f395ff3fe60806040526004361061012b575f3560e01c806376ff7bf4116100a4578063ad11728b1161006b578063ad11728b146103e4578063b168530614610403578063b1b81dd914610422578063d1eb06f214610441578063e82935da1461046c578063f14faf6f1461048b57005b806376ff7bf41461032f5780637903a7561461035b5780638da5cb5b14610370578063a43a99b8146103a6578063a8dcb615146103c557005b806348892753116100f357806348892753146102435780634b0bddd21461026f5780634c9b78da1461028e5780634f63829c146102b9578063683d6e58146102e557806374d21ae01461031057005b806302c427871461012d57806306ec00321461017b578063141961bc146101b457806324d7806c146101ea5780633c60b55914610218575b005b348015610138575f5ffd5b506101666101473660046115ea565b600860209081525f928352604080842090915290825290205460ff1681565b60405190151581526020015b60405180910390f35b348015610186575f5ffd5b506101a6610195366004611618565b5f9081526004602052604090205490565b604051908152602001610172565b3480156101bf575f5ffd5b506101d36101ce366004611618565b61049e565b6040516101729b9a9998979695949392919061165d565b3480156101f5575f5ffd5b506101666102043660046116fe565b600a6020525f908152604090205460ff1681565b348015610223575f5ffd5b506101a6610232366004611618565b60096020525f908152604090205481565b34801561024e575f5ffd5b5061026261025d366004611720565b610721565b6040516101729190611740565b34801561027a575f5ffd5b5061012b6102893660046117a3565b610855565b348015610299575f5ffd5b506101a66102a8366004611618565b5f9081526005602052604090205490565b3480156102c4575f5ffd5b506102d86102d3366004611618565b6108ca565b60405161017291906117d6565b3480156102f0575f5ffd5b506101a66102ff366004611618565b5f9081526003602052604090205490565b34801561031b575f5ffd5b5061012b61032a366004611618565b610933565b34801561033a575f5ffd5b5061034e610349366004611720565b6109f1565b6040516101729190611821565b348015610366575f5ffd5b506101a660015481565b34801561037b575f5ffd5b505f5461038e906001600160a01b031681565b6040516001600160a01b039091168152602001610172565b3480156103b1575f5ffd5b5061034e6103c0366004611720565b610aa1565b3480156103d0575f5ffd5b5061012b6103df36600461186a565b610af6565b3480156103ef575f5ffd5b5061012b6103fe36600461189f565b610d98565b34801561040e575f5ffd5b506101a661041d366004611905565b610de8565b34801561042d575f5ffd5b5061012b61043c3660046119eb565b611080565b34801561044c575f5ffd5b506101a661045b366004611618565b5f9081526006602052604090205490565b348015610477575f5ffd5b5061012b610486366004611618565b6111d7565b61012b610499366004611618565b6112c9565b600260208190525f918252604090912080546001820154928201805491936001600160a01b031692916104d090611a45565b80601f01602080910402602001604051908101604052809291908181526020018280546104fc90611a45565b80156105475780601f1061051e57610100808354040283529160200191610547565b820191905f5260205f20905b81548152906001019060200180831161052a57829003601f168201915b50505050509080600301805461055c90611a45565b80601f016020809104026020016040519081016040528092919081815260200182805461058890611a45565b80156105d35780601f106105aa576101008083540402835291602001916105d3565b820191905f5260205f20905b8154815290600101906020018083116105b657829003601f168201915b5050505050908060040180546105e890611a45565b80601f016020809104026020016040519081016040528092919081815260200182805461061490611a45565b801561065f5780601f106106365761010080835404028352916020019161065f565b820191905f5260205f20905b81548152906001019060200180831161064257829003601f168201915b50505050509080600501805461067490611a45565b80601f01602080910402602001604051908101604052809291908181526020018280546106a090611a45565b80156106eb5780601f106106c2576101008083540402835291602001916106eb565b820191905f5260205f20905b8154815290600101906020018083116106ce57829003601f168201915b5050506006840154600785015460088601546009870154600a90970154959692956001600160a01b039092169450925060ff168b565b61075460405180608001604052805f6001600160a01b03168152602001606081526020015f81526020015f151581525090565b5f83815260056020526040902080548390811061077357610773611a7d565b5f918252602091829020604080516080810190915260049092020180546001600160a01b0316825260018101805492939192918401916107b290611a45565b80601f01602080910402602001604051908101604052809291908181526020018280546107de90611a45565b80156108295780601f1061080057610100808354040283529160200191610829565b820191905f5260205f20905b81548152906001019060200180831161080c57829003601f168201915b50505091835250506002820154602082015260039091015460ff16151560409091015290505b92915050565b5f546001600160a01b031633146108a05760405162461bcd60e51b815260206004820152600a60248201526937b7363c9037bbb732b960b11b60448201526064015b60405180910390fd5b6001600160a01b03919091165f908152600a60205260409020805460ff1916911515919091179055565b5f8181526006602090815260409182902080548351818402810184019094528084526060939283018282801561092757602002820191905f5260205f20905b81546001600160a01b03168152600190910190602001808311610909575b50505050509050919050565b5f81815260086020908152604080832033845290915290205460ff166109875760405162461bcd60e51b81526020600482015260096024820152681b9bdd081b1a5ad95960ba1b6044820152606401610897565b5f8181526008602090815260408083203384528252808320805460ff19169055838352600990915281208054916109bd83611aa5565b9091555050604051339082907fcaadb8eaa8eea76230cccab7fb207c387f40489b1ce59b8dc6e51a5e584e3f58905f90a350565b610a276040518060a001604052805f6001600160a01b031681526020015f81526020015f81526020015f81526020015f81525090565b5f838152600360205260409020805483908110610a4657610a46611a7d565b5f9182526020918290206040805160a081018252600590930290910180546001600160a01b03168352600181015493830193909352600283015490820152600382015460608201526004909101546080820152905092915050565b610ad76040518060a001604052805f6001600160a01b031681526020015f81526020015f81526020015f81526020015f81525090565b5f838152600460205260409020805483908110610a4657610a46611a7d565b335f908152600a602052604090205460ff16610b245760405162461bcd60e51b815260040161089790611aba565b5f8381526002602052604081208054909103610b525760405162461bcd60e51b815260040161089790611ade565b5f8211610b965760405162461bcd60e51b81526020600482015260126024820152710616d6f756e74206d757374206265203e20360741b6044820152606401610897565b81471015610bdd5760405162461bcd60e51b8152602060048201526014602482015273696e73756666696369656e742062616c616e636560601b6044820152606401610897565b604080514360208201526bffffffffffffffffffffffff19606086901b1691810191909152605481018390524260748201525f906094016040516020818303038152906040528051906020012090505f846001600160a01b0316846040515f6040518083038185875af1925050503d805f8114610c75576040519150601f19603f3d011682016040523d82523d5f602084013e610c7a565b606091505b5050905080610cbd5760405162461bcd60e51b815260206004820152600f60248201526e1d1c985b9cd9995c8819985a5b1959608a1b6044820152606401610897565b5f868152600460208181526040808420815160a0810183526001600160a01b03808c168083528286018c8152428487019081524360608601908152608086018d8152875460018181018a55988d5299909b20955160059099029095018054989094166001600160a01b0319909816979097178355519382019390935593516002850155516003840155935191909201555187907f47a070fddc333f091b62fe7651c416dec4f2f79654dc9ee5412312d7b5eeae3290610d889088908790918252602082015260400190565b60405180910390a3505050505050565b335f908152600a602052604090205460ff16610dc65760405162461bcd60e51b815260040161089790611aba565b5f91825260026020526040909120600a01805460ff1916911515919091179055565b335f908152600a602052604081205460ff16610e165760405162461bcd60e51b815260040161089790611aba565b600180545f9182610e2683611b0a565b919050559050604051806101600160405280828152602001336001600160a01b031681526020018d8d8080601f0160208091040260200160405190810160405280939291908181526020018383808284375f92019190915250505090825250604080516020601f8e018190048102820181019092528c815291810191908d908d90819084018382808284375f92019190915250505090825250604080516020601f8c018190048102820181019092528a815291810191908b908b90819084018382808284375f92019190915250505090825250604080516020601f8a01819004810282018101909252888152918101919089908990819084018382808284375f92018290525093855250505060208083018890526001600160a01b0387811660408086019190915260608501849052426080860152600160a0909501859052868452600280845293819020865181559286015194830180546001600160a01b031916959092169490941790559183015190820190610fa49082611b82565b5060608201516003820190610fb99082611b82565b5060808201516004820190610fce9082611b82565b5060a08201516005820190610fe39082611b82565b5060c0820151600682015560e08201516007820180546001600160a01b0319166001600160a01b039092169190911790556101008201516008820155610120820151600982015561014090910151600a909101805460ff1916911515919091179055604051339082907f633109eec20320eded000fc1e2634211aa7e92ba3f5b15faf6dcdafca05094e4905f90a39b9a5050505050505050505050565b5f8481526002602052604081205490036110ac5760405162461bcd60e51b815260040161089790611ade565b60055f8581526020019081526020015f206040518060800160405280336001600160a01b0316815260200185858080601f0160208091040260200160405190810160405280939291908181526020018383808284375f9201829052509385525050426020808501919091528615156040909401939093525083546001808201865594825290829020835160049092020180546001600160a01b0319166001600160a01b0390921691909117815590820151919290919082019061116f9082611b82565b5060408281015160028301556060909201516003909101805460ff191691151591909117905551339085907fcc2d7dd2085ae6644799a42c0174adf9afc10a43f26db5eac3ddd1f96d1d64be906111c99087908790611c3d565b60405180910390a350505050565b5f8181526002602052604081205490036112035760405162461bcd60e51b815260040161089790611ade565b5f81815260086020908152604080832033845290915290205460ff161561125c5760405162461bcd60e51b815260206004820152600d60248201526c185b1c9958591e481b1a5ad959609a1b6044820152606401610897565b5f8181526008602090815260408083203384528252808320805460ff191660011790558383526009909152812080549161129583611b0a565b9091555050604051339082907f6790e8ded18c25977540ba89bbcefd83da7fbe624085856758cf343178c4d612905f90a350565b5f341161130f5760405162461bcd60e51b81526020600482015260146024820152730646f6e6174696f6e206d757374206265203e20360641b6044820152606401610897565b5f818152600260205260408120805490910361133d5760405162461bcd60e51b815260040161089790611ade565b600a81015460ff166113875760405162461bcd60e51b815260206004820152601360248201527263616d706169676e206e6f742061637469766560681b6044820152606401610897565b34816008015f82825461139a9190611c6b565b9091555050604080514360208201526bffffffffffffffffffffffff193360601b16918101919091523460548201524260748201525f9060940160408051808303601f1901815282825280516020918201205f878152600380845284822060a0870186523380885234868901908152428989019081524360608b0190815260808b018881528554600180820188559689528a89209c516005909102909c0180546001600160a01b0319166001600160a01b03909d169c909c178c559251948b01949094555160028a015591519288019290925551600490960195909555878152600783528381209481529390915291205490915060ff166114e9575f83815260076020908152604080832033808552908352818420805460ff19166001908117909155878552600684529184208054928301815584529190922090910180546001600160a01b03191690911790555b60078201546001600160a01b0316156115915760078201546040515f916001600160a01b03169034908381818185875af1925050503d805f8114611548576040519150601f19603f3d011682016040523d82523d5f602084013e61154d565b606091505b505090508061158f5760405162461bcd60e51b815260206004820152600e60248201526d199bdc9dd85c990819985a5b195960921b6044820152606401610897565b505b6040805134815260208101839052339185917fc5b4df142a4930e9f5f4ae999caff9bc2eee2deb14046ac4bff24d1c730962ea910160405180910390a3505050565b6001600160a01b03811681146115e7575f5ffd5b50565b5f5f604083850312156115fb575f5ffd5b82359150602083013561160d816115d3565b809150509250929050565b5f60208284031215611628575f5ffd5b5035919050565b5f81518084528060208401602086015e5f602082860101526020601f19601f83011685010191505092915050565b8b81526001600160a01b038b166020820152610160604082018190525f906116879083018c61162f565b8281036060840152611699818c61162f565b905082810360808401526116ad818b61162f565b905082810360a08401526116c1818a61162f565b60c084019890985250506001600160a01b039490941660e08501526101008401929092526101208301521515610140909101529695505050505050565b5f6020828403121561170e575f5ffd5b8135611719816115d3565b9392505050565b5f5f60408385031215611731575f5ffd5b50508035926020909101359150565b602080825282516001600160a01b031682820152820151608060408301525f9061176d60a084018261162f565b9050604084015160608401526060840151151560808401528091505092915050565b8035801515811461179e575f5ffd5b919050565b5f5f604083850312156117b4575f5ffd5b82356117bf816115d3565b91506117cd6020840161178f565b90509250929050565b602080825282518282018190525f918401906040840190835b818110156118165783516001600160a01b03168352602093840193909201916001016117ef565b509095945050505050565b81516001600160a01b031681526020808301519082015260408083015190820152606080830151908201526080808301519082015260a0810161084f565b803561179e816115d3565b5f5f5f6060848603121561187c575f5ffd5b83359250602084013561188e816115d3565b929592945050506040919091013590565b5f5f604083850312156118b0575f5ffd5b823591506117cd6020840161178f565b5f5f83601f8401126118d0575f5ffd5b50813567ffffffffffffffff8111156118e7575f5ffd5b6020830191508360208285010111156118fe575f5ffd5b9250929050565b5f5f5f5f5f5f5f5f5f5f60c08b8d03121561191e575f5ffd5b8a3567ffffffffffffffff811115611934575f5ffd5b6119408d828e016118c0565b909b5099505060208b013567ffffffffffffffff81111561195f575f5ffd5b61196b8d828e016118c0565b90995097505060408b013567ffffffffffffffff81111561198a575f5ffd5b6119968d828e016118c0565b90975095505060608b013567ffffffffffffffff8111156119b5575f5ffd5b6119c18d828e016118c0565b90955093505060808b013591506119da60a08c0161185f565b90509295989b9194979a5092959850565b5f5f5f5f606085870312156119fe575f5ffd5b84359350602085013567ffffffffffffffff811115611a1b575f5ffd5b611a27878288016118c0565b9094509250611a3a90506040860161178f565b905092959194509250565b600181811c90821680611a5957607f821691505b602082108103611a7757634e487b7160e01b5f52602260045260245ffd5b50919050565b634e487b7160e01b5f52603260045260245ffd5b634e487b7160e01b5f52601160045260245ffd5b5f81611ab357611ab3611a91565b505f190190565b6020808252600a908201526937b7363c9030b236b4b760b11b604082015260600190565b60208082526012908201527118d85b5c185a59db881b9bdd08199bdd5b9960721b604082015260600190565b5f60018201611b1b57611b1b611a91565b5060010190565b634e487b7160e01b5f52604160045260245ffd5b601f821115611b7d57805f5260205f20601f840160051c81016020851015611b5b5750805b601f840160051c820191505b81811015611b7a575f8155600101611b67565b50505b505050565b815167ffffffffffffffff811115611b9c57611b9c611b22565b611bb081611baa8454611a45565b84611b36565b6020601f821160018114611be2575f8315611bcb5750848201515b5f19600385901b1c1916600184901b178455611b7a565b5f84815260208120601f198516915b82811015611c115787850151825560209485019460019092019101611bf1565b5084821015611c2e57868401515f19600387901b60f8161c191681555b50505050600190811b01905550565b60208152816020820152818360408301375f818301604090810191909152601f909201601f19160101919050565b8082018082111561084f5761084f611a9156fea2646970667358221220b436800829f9f0307e6805ce5d892ef9bbf4af86d044c7e6fc36cdc9a8447c5a64736f6c634300081c0033",
  "linkReferences": {},
  "deployedLinkReferences": {},
  "immutableReferences": {},
  "inputSourceName": "project/contracts/Charity.sol",
  "buildInfoId": "solc-0_8_28-bc13e20c7334eb0e22ad80e17d5160ea66afc68f"
}